:1000000000000220AD010000D9010000D90100006C
:10001000D9010000D9010000D9010000D901000078
:10002000D9010000D9010000D9010000D901000068
:10003000D9010000D9010000D90100009535000068
:10004000D901000029360000D9010000D9010000C3
:10005000D9010000D9010000D9010000D901000038
:10006000D9010000D9010000D9010000F1350000DC
:10007000D9010000D9010000D9010000D901000018
:10008000D9010000D9010000D9010000D901000008
:10009000D9010000D9010000D9010000D9010000F8
:1000A000D9010000D9010000D9010000D9010000E8
:1000B000D9010000D9010000A1040000D90100000D
:1000C000D9010000D9010000D9010000D9010000C8
:1000D000D9010000D9010000D901000010B5054C7C
:1000E000237833B9044B13B10448AFF300800123E4
:1000F000237010BD7800002000000000D83E0000F2
:10010000084B10B51BB108480849AFF300800848F8
:10011000036803B910BD074B002BFBD0BDE81040AE
:10012000184700BF00000000D83E00007C000020FF
:100130007000002000000000154B002B08BF134B7F
:100140009D46A3F5803A00218B460F461348144A7A
:10015000121A03F08DFB0F4B002B00D098470E4B6B
:10016000002B00D098470020002104000D000D480E
:10017000002802D00C48AFF3008003F053FB2000AE
:10018000290003F0BDFA03F039FB00BF00000800AE
:1001900000000220000000000000000078000020A5
:1001A000E800002000000000000000000648804732
:1001B0000649074A074B9A42BEBF51F8040B42F862
:1001C000040BF8E7FFF7B8FF59030000E43E000016
:1001D0000000002074000020FEE700BF80B400AFE4
:1001E000044BDB6C1B0EDBB21846BD465DF8047B8E
:1001F000704700BFB081E00F80B582B000AF00F063
:100200001FF87860074B5B6803F00F031A467B68A2
:10021000D3407B60044A7B6813607B6818460837CC
:10022000BD4680BD00800C40E000002080B400AFDF
:10023000024B1846BD465DF8047B7047006CDC023B
:1002400080B582B000AF334BDB6A03F47053B3F573
:10025000805F0AD0B3F5005F03D0B3F5006F08D01C
:100260000BE02D4B1B687B6047E04FF400437B6045
:1002700043E02A4B1B687B603FE0264BDB6803F4BE
:10028000E063B3F5007F1BD0B3F5007F05D8002BEA
:1002900024D0B3F5807F16D02BE0B3F5806F09D062
:1002A000B3F5A06F03D0B3F5407F06D021E01C4B1F
:1002B0007B6021E01B4B7B601EE01B4B7B601BE0E7
:1002C0001A4B7B6018E0FFF789FF0346122B02D917
:1002D000174B7B6010E0174B7B600DE0FFF77EFF54
:1002E0000346122B02D9144B7B6005E0134B7B6055
:1002F00002E000237B6000BF00BF064B1B6803F4D5
:10030000E0339B0B01337A68B2FBF3F318460837EE
:10031000BD4680BD00800C4004000020000000208D
:10032000003FAB01406F4001809FD500C0D8A700BF
:1003300040B56400C0CF6A00804F120040420F00F9
:1003400080B400AF034B1B681846BD465DF8047BC4
:10035000704700BF0000002080B400AFBD465DF8CC
:10036000047B704780B400AF4FF400431846BD468D
:100370005DF8047B704700BF80B400AF4FF47A7320
:100380001846BD465DF8047B704700BF80B400AFDF
:10039000034B1B681846BD465DF8047B704700BFE1
:1003A0000400002080B400AF72B6084B1B68B3F1A4
:1003B000FF3F04D0054B1B680133044A1360034B15
:1003C0001B681846BD465DF8047B7047CC000020D2
:1003D00080B483B000AF0C4B1B68002B0DD00A4BD0
:1003E0001B68013B084A1360074B1B687B607B68F6
:1003F000002B00D162B67B6800E0002318460C3762
:10040000BD465DF8047B7047CC00002080B400AF8F
:10041000034B5B681846BD465DF8047B704700BF20
:100420000000084080B483B000AF7860034A7B6866
:1004300093610C37BD465DF8047B704700000840AF
:1004400080B483B000AF78600549054BDA697B68FA
:10045000DB431340CB610C37BD465DF8047B70472E
:100460000000084080B483B000AF78600549054BB8
:10047000DA697B681343CB610C37BD465DF8047BBA
:10048000704700BF0000084080B400AF034B1B69F9
:100490001846BD465DF8047B704700BF0000084069
:1004A00080B584B000AFFFF77DFFFFF7EDFFB860C8
:1004B000BB6803F00203002B39D01F4B01221A70D6
:1004C000FFF7A4FFF8600220FFF7BAFFFB681A02EB
:1004D0001A4B1B681B02D31A1B0A7B60786800F05A
:1004E00031F800F083F9F86800F0B2F9FFF78EFFF9
:1004F000F860FB681A02114B1B681B02D31A1B0A17
:100500007B60002002F06EFC03461A020B4B1B6856
:100510001B02D31A1B0A3B60094B1B78002B03D02C
:100520007A683B689A42CED8034B00221A70FFF7D4
:100530004FFF1037BD4680BDC4000020C000002022
:10054000C500002090B484B000AF78600023FB6049
:1005500041E1A549FA6813469B001344DB000B44B4
:10056000183300225A71A049FA6813469B001344BD
:10057000DB000B4418331B79002B00F029819A49CA
:10058000FA6813469B001344DB000B44D3E90023B5
:10059000796808464FF00001994208BF904219D28D
:1005A0009149FA6813469B001344DB000B44D3E9DE
:1005B00000017B681A464FF00003801A61EB0301CB
:1005C000894CFA6813469B001344DB002344C3E9BB
:1005D0000001FDE08449FA6813469B001344DB00E8
:1005E0000B441833DB79002B0AD17F49FA68134694
:1005F0009B001344DB000B44183300221A71D2E035
:100600007949FA6813469B001344DB000B44083316
:10061000D3E900017B681A464FF00003801A61EBB2
:100620000301714CFA6813469B001344DB0023441A
:10063000D3E90023801841EB03016B4CFA681346A1
:100640009B001344DB002344C3E900016649FA68B8
:1006500013469B001344DB000B4410331B68002B34
:1006600050DD6149FA6813469B001344DB000B44DC
:10067000103359685C48FA6813469B001344DB004A
:10068000034410331B6819445748FA6813469B000B
:100690001344DB000344103359605349FA6813468E
:1006A0009B001344DB000B4410335B68F32B7AD9B7
:1006B0004D49FA6813469B001344DB000B44D3E911
:1006C0000023501C43F10001474CFA6813469B007D
:1006D0001344DB002344C3E900014349FA6813468D
:1006E0009B001344DB000B4410335B68A3F1F4015F
:1006F0003D48FA6813469B001344DB000344103363
:10070000596050E03849FA6813469B001344DB00F7
:100710000B44103359683448FA6813469B0013445D
:10072000DB00034410331B68C91A2F48FA681346CC
:100730009B001344DB000344103359602A49FA68D4
:1007400013469B001344DB000B4410335B68F32B10
:1007500029D92549FA6813469B001344DB000B4452
:10076000D3E9002312F1FF3043F1FF311E4CFA6848
:1007700013469B001344DB002344C3E900011A49DC
:10078000FA6813469B001344DB000B4410335B688C
:10079000A3F1F4011448FA6813469B001344DB00EC
:1007A0000344103359601049FA6813469B00134400
:1007B000DB000B4418331B68002B09D00A49FA6888
:1007C00013469B001344DB000B44183301225A717B
:1007D000FB680133FB60FB68002B7FF7BAAE103774
:1007E000BD4690BC704700BF9800002090B583B014
:1007F00000AF00237B6022E014497A6813469B0017
:100800001344DB000B4418335B79002B14D00F49E1
:100810007A6813469B001344DB000B4418331C68B2
:1008200078680A497A6813469B001344DB000B443E
:1008300020331B681946A0477B6801337B607B68C7
:10084000002BD9DD0C37BD4690BD00BF98000020BD
:1008500080B58AB000AF78604FF0FF324FF0FF33C1
:10086000C7E9062300237B6227E037497A6A1346EB
:100870009B001344DB000B4418331B79002B19D069
:1008800031497A6A13469B001344DB000B44D3E9D9
:100890000001D7E90623994208BF90420AD22A49AB
:1008A0007A6A13469B001344DB000B44D3E9002310
:1008B000C7E906237B6A01337B627B6A002BD4DDA8
:1008C000224B00221A70D7E90623B3F1FF3F08BF7D
:1008D000B2F1FF3F35D0D7E90623C7E904231C4B0B
:1008E000FB60FB681A464FF00003D7E90401994208
:1008F00008BF904201D202460B46C7E90623154BBA
:100900001B7883F00103DBB2002B05D07B6823F05A
:100910007F43114A136002E00F4A7B681360022094
:10092000FFF780FDBA697B68134423F07F43002002
:10093000194602F07DFA054B01221A700220FFF7DA
:1009400091FD2837BD4680BD98000020C5000020DD
:100950009BFFFF00C4000020C000002080B483B0D3
:1009600000AF0346FB71FB79002B06D0084A084B09
:100970001B6843F00103136005E0054A044B1B6844
:1009800023F0010313600C37BD465DF8047B70470C
:1009900000A0084080B483B000AF0346FB71FB7930
:1009A000002B03D0054B01221A6602E0034B002204
:1009B0001A660C37BD465DF8047B704700A00840FE
:1009C00080B483B000AF786000BF054B5A6E7B687F
:1009D0001340002BF9D10C37BD465DF8047B7047FE
:1009E00000A0084080B483B000AF78600549054B93
:1009F0009A6A7B68DB4313408B620C37BD465DF817
:100A0000047B704700A0084080B500AF0020284953
:100A1000002202F041F801202549002202F03CF8B2
:100A200002202349002202F037F803202049002247
:100A300002F032F804201E49002202F02DF80520B1
:100A40001B49002202F028F806201949002202F072
:100A500023F807201649002202F01EF80020FF218B
:100A6000002202F0E5F80120FF21002202F0E0F868
:100A70000220FF21002202F0DBF80320FF210022E8
:100A800002F0D6F80420FF21002202F0D1F8052060
:100A9000FF21002202F0CCF80620FF21002202F004
:100AA000C7F80720FF21002202F0C2F880BD00BF76
:100AB00000F00FF080B500AF07202649002201F0BA
:100AC000EBFF06202449002201F0E6FF0520224921
:100AD000002201F0E1FF04201F49002201F0DCFFA9
:100AE00003201D49002201F0D7FF02201A490022ED
:100AF00001F0D2FF01201849002201F0CDFF0020B3
:100B00004FF02041002201F0C7FF072007210022FB
:100B100002F08EF806200721002202F089F8052055
:100B20000721002202F084F804200721002202F0AD
:100B30007FF803200721002202F07AF80220072123
:100B4000002202F075F801200721002202F070F85F
:100B500000BF80BD00E00F5000E00FF080B500AF97
:100B60000020FFF7FBFE0120FFF72AFF03480021CA
:100B700000F08EFD024B0022DA6780BD00362600B1
:100B800000800C4080B582B000AF0346FB71254861
:100B9000012100F07DFD2448032100F091FF23484E
:100BA000402100F011FC012001F07EF920480121D4
:100BB00000F06EFD4FF0FF30FFF714FF1D4801F00D
:100BC000DBFD0820012101F03DFE1020012101F094
:100BD00039FE8020012101F035FE4FF480700121A3
:100BE00001F030FE4FF40070012101F02BFEFB7983
:100BF000002B0DD04FF4402002F0E0F84FF480308D
:100C000001F0FEFD0C4A0C4BDB6F43F00803D36789
:100C1000FFF7FAFE4FF0FF30FFF7D2FE0837BD4670
:100C200080BD00BF004302000200180060002400E5
:100C300000362600883B000000800C4080B58AB05A
:100C400000AF78607B6842F20E72934202DD42F29E
:100C50000F737B607B6813F57A7F01DC3C4B7B6014
:100C60007B68002B06DA786802F0C4FD7860012307
:100C7000BB6101E00023BB614FF0FF30FFF7A0FE36
:100C80000120FFF787FE00F06BF80123FB610023D2
:100C90003B6254E07A68FB6992FBF3F22D4B83FBD5
:100CA00002139910D317C91A0B469B000B445B0023
:100CB000D11A0B46FB82BB69012B04D13B6A032B83
:100CC00001D11023FB82FB8A234A32F81330BB8206
:100CD00000237B6227E021493A6A1346DB009B1A16
:100CE0005B00CA187B6A1344C033DB7A3B611B4943
:100CF0003A6A1346DB009B1A5B00CA187B6A1344EE
:100D0000C0331B79FB60BA8A7B6A42FA03F303F0B3
:100D10000103002B04D0F8683969012201F0B2FD0B
:100D20007B6A01337B627B6A062BD4DDFA6913464A
:100D30009B0013445B00FB613B6A01333B623B6AEF
:100D4000032BA7DD0020FFF725FE2837BD4680BD19
:100D500019FCFFFF67666666643B0000AC38000064
:100D600080B500AF01207821002201F061FF022050
:100D70007821002201F05CFF03207821002201F09D
:100D800057FF04207821002201F052FF052078212E
:100D9000002201F04DFF06207821002201F048FFDB
:100DA00007207821002201F043FF00BF80BD00BF73
:100DB00080B58AB000AF7860786802F061FD0346C4
:100DC000BB6100233B624FF0FF30FFF7F9FD0120CC
:100DD000FFF7E0FDFFF76EFE00233B6246E03A6A54
:100DE000BB699A4203DA7B681B787B6201E02023AF
:100DF0007B627B6A203B7B62214A7B6A32F813303C
:100E0000FB820023FB6128E01E493A6A1346DB009F
:100E10009B1A9B00CA18FB69134408339B793B61FA
:100E200018493A6A1346DB009B1A9B00FA6913447F
:100E30000B441B78FB60FA8AFB6942FA03F303F068
:100E40000103002B06D0FA683B69104619460122BF
:100E500001F018FDFB690133FB61FB690D2BD3DD4C
:100E60007B6801337B603B6A01333B623B6A062B44
:100E7000B5DD0020FFF78EFD2837BD4680BD00BFE1
:100E8000AC3A0000AC38000080B483B000AF7860AA
:100E90003960FEE780B487B000AFF860B9607A606F
:100EA000FB6803F10473DA00BB6813449B007B61A9
:100EB0007B697A681A601C37BD465DF8047B704711
:100EC00080B485B000AF786039607B6803F104734B
:100ED000DA003B6813449B00FB60FB681B68184604
:100EE0001437BD465DF8047B704700BF80B584B001
:100EF00000AF78607B68002B03D07B68B3F5004FB0
:100F000004D9084840F2C941FFF7BEFF7B68B3FA35
:100F100083F3C3F11F03FB60FB6818461037BD461F
:100F200080BD00BF9C3B000080B400AF044BDB6C75
:100F30001B0EDBB21846BD465DF8047B704700BF50
:100F4000B081E00F80B400AF054BDB6C03F47F038E
:100F50001B0CDBB21846BD465DF8047B704700BF32
:100F6000B081E00F80B582B000AFFFF7EBFF034622
:100F70004A2B04D0792B02D0482B21D022E0164BEB
:100F80001B699BB203F03F039BB21B02FB80124B19
:100F90009B6903F0F0039AB2FB881343FB800E4B6E
:100FA000DB6903F0F0031B099AB2FB881343FB8053
:100FB000FB88B3F5017F01D3084B08E0084B06E03E
:100FC000074B04E007489A21FFF75EFF002318460D
:100FD0000837BD4680BD00BFD0FF0FE000366E0170
:100FE0000048E801F83B000080B584B000AF7860AD
:100FF00039607A683B689A428CBF01230023DBB2D8
:10100000FB6006481E21FA68FFF744FF04480821E8
:10101000FA68FFF73FFF1037BD4680BD00800C40E7
:1010200004800C4080B582B000AF0B481E21FFF752
:1010300047FF786009480821FFF742FF38607A6867
:101040003B689A4203D00648D821FFF71DFF7B6812
:1010500018460837BD4680BD00800C4004800C4017
:10106000F83B000080B582B000AF244B5B6903F40D
:10107000E063B3F5007F1CD0B3F5007F05D8002BEB
:1010800025D0B3F5807F1FD02AE0B3F5C06F24D000
:10109000B3F5E06F1ED0B3F5407F21D1FFF744FFD9
:1010A0000346122B02D9164B7B6021E0154B7B6067
:1010B0001EE0FFF739FF0346122B02D9124B7B606B
:1010C00016E0124B7B6013E0114B7B6010E0114B7C
:1010D0007B600DE0104B7B600AE0104B7B6007E00B
:1010E0000F484FF48D71FFF7CFFE00237B6000BFE8
:1010F0007B6818460837BD4680BD00BF00800C40A5
:10110000804F120040420F0040B56400C0CF6A001B
:10111000C0D8A700809FD500406F4001003FAB01C1
:10112000F83B000080B582B000AF0F4800F014FC1F
:101130000346FB70FB78072B05D0082B07D1FFF780
:101140007FF878600BE0FFF78DFF786007E00748D5
:1011500040F24311FFF798FE00237B6000BF7B68DD
:1011600018460837BD4680BD06000C00F83B00005D
:1011700080B485B000AF7860284BDB6B002B14BFC8
:1011800001230023BB72254B41F67132DA63234BF6
:101190005B6803F00703FB60FB68012B01D9042B9C
:1011A00002D10023FB7202E00123FB7200BF7B68C7
:1011B0001B4A934207D9FB7A002B01D0052300E09C
:1011C0000423FB6016E07B68154A93420BD87B68CA
:1011D000144A934207D9FB7A002B01D0032300E085
:1011E0000123FB6006E0FB7A002B01D0022300E024
:1011F0000023FB600949094B5B6823F00702FB6889
:1012000013434B60BB7A002B02D0044B0022DA63FD
:101210001437BD465DF8047B704700BF00000C40EA
:101220000048E8010024F40080B500AFFEF7FEFF9F
:1012300003461846FFF79CFF80BD00BF90B585B000
:1012400000AF78600023BB607B683B4A934208D0C4
:101250003A4A934205D03A484FF4F171FFF714FE31
:1012600000E000BF786800F077FB0346FB607B6816
:10127000314A934203D0314A934206D00CE0314BBD
:101280009B6A03F00303FB600CE02E4B9B6A03F0A8
:101290000C039B08FB6005E029484FF40371FFF73E
:1012A000F3FD00BFFB68032B39D801A252F823F0ED
:1012B000E7120000C1120000C9120000D1120000A4
:1012C000FFF750F8B86032E0FFF760F8B8602EE042
:1012D000FEF792FF0446FFF7A5FE0346013324FA0A
:1012E00003F3BB6023E00023BB607B68124A934298
:1012F00003D07B68114A934210D1124B9A6A7B68E3
:101300000D498B4201D1102300E0142322FA03F38C
:10131000002B03D0FFF730F8B86008E007E008487A
:1013200040F23721FFF7B0FD0023BB6000BFBB6870
:1013300018461437BD4690BD0200180003001A007D
:10134000F83B000000800C4080B483B000AF7860B0
:10135000094B5B6D03F00103002B00D006E000BFDA
:10136000054B1A6D7B681340002BF9D10C37BD4635
:101370005DF8047B704700BF00800C4080B582B0F0
:1013800000AF104800F0E8FA0346FB70FB78032B2F
:1013900007D0082B09D0022B0BD1FEF7F7FF78609E
:1013A0000AE0FEF7DFFF786006E0FEF749FF7860AD
:1013B00002E000237B6000BF7B6818460837BD460B
:1013C00080BD00BF07232000B0B584B000AF7860B7
:1013D00039607B681B0903F00F03FB60FB68013B6E
:1013E000062B00F23C8101A252F823F00914000000
:1013F0005F1600005F16000045140000771400001F
:10140000D3140000DF1500003B68002B02D03B68BE
:10141000082B04D9964840F2E241FFF735FDFFF76B
:1014200003FF9449934B1B6823F4E0323B68013B74
:101430009B0313430B60FEF7DFFEB860B868FFF74D
:1014400097FE12E13B68002B03D03B68B3F5007FA9
:1014500004D9874840F2F541FFF716FD3868FFF7D9
:1014600045FD38608349834B9B6823F00F023B683E
:1014700013438B60F9E03B68002B03D03B68B3F566
:10148000007F04D97A4840F2FD41FFF7FDFCFFF7E9
:10149000CBFEFEF7D5FE02463B68B2FBF3F4FFF746
:1014A00061FD034620461946FFF79EFD3868FFF7A9
:1014B0001DFD38606F496F4B5B6823F00F023B687E
:1014C00013434B60FEF798FEB860B868FFF750FE14
:1014D000CBE07B68684A934227D0674A934203D89F
:1014E000664A934207D073E0654A934237D0654A13
:1014F000934255D06CE03B68B3F5004F04D95C488B
:1015000040F21951FFF7C0FC0420FFF71DFF3868B7
:10151000FFF7ECFC38605749564B9B6E23F0F00206
:101520003B681B0113438B6658E03B68B3F5004FE3
:1015300004D94F4840F22751FFF7A6FC0420FFF7DB
:1015400003FF3868FFF7D2FC38604A49494B9B6E6D
:1015500023F470623B681B0213438B663EE03B68DA
:101560000F2B02D93B68802B04D9414840F23651F9
:10157000FFF78AFC0420FFF7E7FE3868FFF7B6FCA8
:1015800038603C4D3B4B9B6E23F440541020FFF7DA
:10159000ADFC02463B689B1A1B032343AB661DE070
:1015A0003B68082B04D9324840F24651FFF76CFCE7
:1015B0000420FFF7C9FE3868FFF798FC38602D4912
:1015C0002C4B9B6E23F003023B6813438B6605E0B4
:1015D000274840F25451FFF757FC00BF45E07B68B5
:1015E000294A934203D0294A934218D030E03B68FD
:1015F000082B04D91E4840F25E51FFF745FC4020FD
:10160000FFF7A2FE3868FFF771FC38601949194BE3
:101610001B6F23F003023B6813430B671EE03B681C
:10162000082B04D9124840F26D51FFF72DFC4020E1
:10163000FFF78AFE3868FFF759FC38600D490D4BFB
:101640001B6F23F030023B681B0113430B6705E05F
:10165000074840F27B51FFF717FC00BF05E0044844
:1016600040F28151FFF710FC00BF1037BD46B0BDFE
:10167000F83B000000800C4060261200601610004D
:101680006000240060062800700714007017160020
:1016900090B587B000AF78600B46FB7000233B61CC
:1016A0007B681B0A03F00F03013B092B37D801A20B
:1016B00052F823F0F9160000FF160000DD160000B6
:1016C0001F1700001F170000051700000F1700006C
:1016D0001F1700001F170000191700001D4B7B612A
:1016E0001D4800F047F80446FFF73CFC034620463F
:1016F0001946FFF779FC18E0184B7B6115E0184B91
:101700007B6112E0174B7B6101233B610DE0164BBF
:101710007B6110233B6108E0144B7B6105E01448BA
:101720004FF4BD61FFF7B0FB10E07B681B0B03F0CB
:101730001F03FB603B69002B02D03869FFF704FEF2
:10174000FB787869F9681A46FFF7A4FB1C37BD4699
:1017500090BD00BF40800C400043020008800C4058
:1017600044800C4058800C4060800C4078800C40D5
:10177000F83B000090B585B000AF78607B6803F45B
:101780007813B3F5A01F00F0AB80B3F5A01F1AD8F3
:10179000B3F5402F00F0BF80B3F5402F08D8B3F564
:1017A000003F3CD0B3F5802F2DD0002B27D0BEE0DA
:1017B000B3F5801F3CD0B3F5901F47D0B3F5602F31
:1017C00000F0AD80B3E0B3F5001F00F0AC80B3F5DE
:1017D000001F0AD8B3F5C01F25D0B3F5D01F7AD0AB
:1017E000B3F5B01F00F08980A1E0B3F5181F4ED00B
:1017F000B3F5201F62D0B3F5101F35D097E0FEF788
:101800001FFDF8609BE0FEF71BFDF8604E4B9B68E8
:1018100003F00F031A46FB68D340FB608FE0FEF72E
:10182000EBFCF8608BE04948FFF708FDF86086E0C4
:101830004648FFF703FDF860434B9B6E03F0F0034F
:101840001B091A46FB68D340FB6078E03F48FFF76E
:10185000F5FCF8603C4B9B6E03F470631B0A1A4660
:10186000FB68D340FB606AE03848FFF7E7FCF860AC
:10187000354B9B6E03F440531C0B1020FFF736FBD7
:10188000034623441A46FB68D340FB6057E02F48C9
:10189000FFF7D4FCF8602C4B9B6E03F440531B0BFA
:1018A0001A46FB68D340FB60274BDB6F03F007034E
:1018B0000133FA68B2FBF3F3FB6040E02348FFF723
:1018C000BDFCF860204B9B6E03F003031A46FB68D7
:1018D000D340FB6033E01E48FFF7B0FCF8602EE019
:1018E0001B48FFF7ABFCF860174B1B6F03F00303BB
:1018F0001A46FB68D340FB6021E01548FFF79EFCC9
:10190000F860114B1B6F03F030031B091A46FB688C
:10191000D340FB6013E0FFF705FCF8600FE0FFF732
:10192000A1FBF8600BE0FFF729FDF86007E009482C
:1019300040F2AA61FFF7A8FA0023FB6000BFFB6832
:1019400018461437BD4690BD00800C4002001800B8
:1019500003001A00F83B000080B584B000AF786047
:101960000123FB737B6803F00F03BB60BB68013B83
:10197000062B00F2938001A252F823F0991900007F
:10198000CF1900000B1A00009D1A00009D1A0000DC
:10199000471A0000691A0000474BDB6A03F47053D2
:1019A000B3F5805F09D0B3F5005F03D0B3F5006FE6
:1019B00006D008E00223FB7308E00323FB7305E075
:1019C0000423FB7302E00523FB7300BF6EE03A4B78
:1019D0009B6A03F00303022B06D0032B07D0012BD5
:1019E00008D10323FB730FE00223FB730CE00623F3
:1019F000FB7309E0304B9B6A03F48033002B02D069
:101A00000923FB7300E000BF50E02B4B9B6A03F0FF
:101A10000C03082B06D00C2B07D0042B08D1032372
:101A2000FB730FE00223FB730CE00623FB7309E05A
:101A3000214B9B6A03F48013002B02D00923FB7314
:101A400000E000BF32E01C4B1B6803F08053002B0A
:101A500003D0B3F1805F03D028E00723FB7302E0DB
:101A60000823FB7300BF21E0134BDB6A03F46033F0
:101A7000B3F5803F08D0B3F5003F08D0B3F5004F71
:101A800008D10823FB7308E00223FB7305E003235E
:101A9000FB7302E00123FB7300BF07E0074840F639
:101AA0005211FFF7F1F90023FB7300BFFB7B1846CF
:101AB0001037BD4680BD00BF00800C40F83B0000E1
:101AC00090B589B000AF78600B46FB700323FB61D3
:101AD0000323FB7600233B617B6803F00F03FB606D
:101AE000FB68013B062B00F2518101A252F823F062
:101AF0000D1B0000111C0000111C00008D1D0000BA
:101B00008D1D0000E51C00001B1D0000FB78023B42
:101B1000072B58D801A252F823F000BF3D1B00004C
:101B2000471B0000511B00009B1B0000C71B00004F
:101B3000C71B0000C71B0000BB1B00000423FB6188
:101B40000023FB7645E00323FB610123FB7640E0A5
:101B50000223FB610223FB76FFF704FA03465C1CB9
:101B6000FFF700FA034620461946FFF73DFAFEF755
:101B7000E7FB02468B4B9A4206D98B4A8A4B1B687D
:101B800043F06003136024E0874A874B1B6823F00F
:101B9000600343F0200313601BE00123FB61032378
:101BA000FB76FFF7DFF903465C1CFFF7DBF9034622
:101BB00020461946FFF718FA0BE07C4840F6DD1185
:101BC000FFF762F9EAE0794840F6E211FFF75CF9C5
:101BD000E4E0FB7E18460121012200F08BF9FFF7BB
:101BE00023FB714AFB6953627148FFF7C3FD04464A
:101BF000FFF7B8F9034620461946FFF7F5F900F05C
:101C000089FBFEF7F9FAB860B868FFF7B1FAC3E0EC
:101C1000FB78013B082B3FD801A252F823F000BF0C
:101C2000451C00004B1C00005B1C0000991C0000C0
:101C3000991C00006B1C0000991C0000991C0000FE
:101C40008F1C000000237B612CE000200121012279
:101C500000F050F902237B6124E0012001210122E0
:101C600000F048F901237B611CE0FEF7C5FAB8607B
:101C7000FFF778F90346B8681946FFF7B5F94D48FC
:101C800004210122FFF706F903237B610AE0002308
:101C90007B6101233B6105E0444840F66521FFF785
:101CA000F3F87BE0FB68022B0DD13F493E4B9B6A6A
:101CB00023F4803323F003037A691A433B691B043E
:101CC00013438B6268E03849374B9B6A23F48013D7
:101CD00023F00C037A6992001A433B691B051343F6
:101CE0008B6259E0FB78072B02D0082B07D00DE060
:101CF0002D4A2D4B1B6823F0805313600CE02A4AB9
:101D0000294B1B6843F08053136005E0274840F6D9
:101D1000C521FFF7B9F841E03EE0FB78032B13D073
:101D2000082B21D0022B2AD100200121012200F012
:101D3000E1F81D4B40225A6200BF1B4BDB6A03F4E3
:101D40008033002BF9D020E001200121012200F096
:101D5000D1F8154B60225A6200BF134BDB6A03F4C3
:101D60000033002BF9D010E00F4B20225A6200BF45
:101D70000D4BDB6A03F40043002BF9D005E00B4860
:101D800040F60931FFF780F808E005E007484FF416
:101D90003161FFF779F800BFFFF744F92437BD46FA
:101DA00090BD00BF0048E80100800C40F83B0000F7
:101DB0000043020040800C4090B587B000AF03465E
:101DC000FB71FB79052B33D801A252F823F000BF39
:101DD000E91D0000F31D0000011E00000F1E0000A1
:101DE000191E0000231E00002B4BDB6ADBB27B6157
:101DF00024E0294BDB6A03F47F431B0A7B611DE06F
:101E0000254BDB6A03F47F031B0C7B6116E0224B3E
:101E1000DB6A1B0E7B6111E01F4B1B6BDBB27B612E
:101E20000CE01D4B1B6B03F47F431B0A7B6105E039
:101E30001A4840F69131FFF727F82AE01120FFF702
:101E40008BFD0346FB74FB7C052B01D1FFF7ECF9FE
:101E50001349134BDB6823F4FF6323F00703FA797C
:101E600012021A437B691343CB60FB7C052B05D11F
:101E7000FEF7C2F9F860F868FFF77AF90948FFF74A
:101E800079FC0446FFF76EF8034620461946FFF733
:101E9000ABF81C37BD4690BDB081E00FF83B0000A9
:101EA00000800C400043020080B582B000AF786033
:101EB0007B68802B04D90D4840F62151FEF7E4FFE2
:101EC0000B4B9B6D03F00803002B00D00BE07B68ED
:101ED00003F007037B600649054BDB6F23F0070225
:101EE0007B681343CB670837BD4680BDF83B0000D5
:101EF00000800C4080B586B000AF0346FB710B46F6
:101F0000BB7113467B71FB79042B32D801A252F8C6
:101F100023F000BF611F0000531F0000371F0000A7
:101F2000291F0000451F000001233B610223FB60C5
:101F300001237B6123E004233B610823FB6003232F
:101F40007B611CE010233B612023FB6005237B6148
:101F500015E040233B618023FB6007237B610EE09B
:101F60004FF480733B614FF40073FB6009237B6186
:101F700005E0104840F6C551FEF786FF16E0BB7934
:101F8000002B0ED00C4A3B6913627B79002B0BD0DF
:101F900000BF0A487969FEF793FF0346002BF8D08B
:101FA00002E0054AFB68136200F0B4F91837BD4639
:101FB00080BD00BFF83B000000800C402C800C402E
:101FC00080B500AFFEF718F980BD00BF80B400AF48
:101FD000034B4AF6E8529A60BD465DF8047B7047B1
:101FE00000600C4080B400AF034B0022C3F8842093
:101FF000BD465DF8047B704700800C4080B400AFA4
:10200000044B45F60E02C3F88420BD465DF8047B00
:10201000704700BF00800C4080B582B000AF384BE5
:10202000D3F8843003F001037B60FFF7E7FF002360
:102030003B60344B1B6803F001033A6813433B6079
:10204000304B1B6803F010033A6813433B602D4B81
:102050001B6803F040033A6813433B60294B1B683D
:1020600003F004033A6813433B60264B1B6803F4F8
:1020700080733A6813433B60214A3B681362214BEB
:102080001B6803F47053B3F5805F06D0B3F5005FAF
:102090000ED0B3F5006F16D020E000BF184BDB6AFE
:1020A00003F08003002BF9D0154B03225A6215E090
:1020B00000BF134BDB6A03F40073002BF9D0104B05
:1020C00004225A620AE000BF0D4BDB6A03F00803EA
:1020D000002BF9D00A4B02225A6200BF094B1B6841
:1020E00003F00103002B02D1054B02221A627B6828
:1020F000002B01D0FFF776FF0837BD4680BD00BF3B
:1021000000800C40C800002080B483B000AF164BA4
:102110001B699BB203F03F039BB21B02FB80124B77
:102120009B6903F0F0039AB2FB881343FB800E4BCC
:10213000DB6903F0F0031B099AB2FB881343FB80B1
:10214000FB88B3F5827F03D3FB88B3F5017F01D110
:10215000012300E0002303F00103DBB218460C3733
:10216000BD465DF8047B7047D0FF0FE080B586B0B8
:1021700000AF0346FB711F4BDB6A1F4A13601F4A07
:102180001E4B1B6943F004031361FFF7BDFF0346B9
:10219000FB75FB7D002B11D0194B1A68194B1340AE
:1021A000FB60174AFB68C2F88030154B5B6823F070
:1021B00046033B61124A3B69C2F8843030BFFB7D65
:1021C000002B05D00E4AFB6813600D4A3B69536033
:1021D000FB79002B02D0FFF71FFF07E0064B1B68BF
:1021E00003F48063002B01D1FFF7EAFE1837BD46E8
:1021F00080BD00BF00800C40C800002000ED00E062
:1022000000E100E09CF1FD0080B586B000AF034620
:10221000FB71274BDB6A274A1360254BD3F88430C8
:1022200003F001037B61FFF7E9FE214B4FF42072BD
:102230001A627B69002B01D0FFF7D4FE1E4A1E4BA9
:102240001B6943F004031361FFF75EFF0346FB7451
:10225000FB7C002B11D0194B1A68194B1340BB6043
:10226000164ABB68C2F88030144B5B6823F0460303
:10227000FB60124AFB68C2F8843030BFFB7C002B45
:1022800005D00E4ABB6813600C4AFB685360FB79AB
:10229000002B02D0FFF7C0FE07E0064B1B6803F4DB
:1022A0008063002B01D1FFF78BFE1837BD4680BD40
:1022B00000800C40C800002000ED00E000E100E0DC
:1022C0009CF1FD0080B584B000AF114B1B6823F07A
:1022D0000C0343F00803BB600D4B1B6843F00C0379
:1022E0007B60FFF773FE0023FB6008E0084ABB68D1
:1022F0001360074A7B681360FB680133FB60FB686F
:10230000032BF3DD024ABB6813601037BD4680BD66
:1023100000600C4080B400AF034BDB6A034A1360DB
:10232000BD465DF8047B704700800C40C80000206B
:1023300080B487B000AFF860B9607A60FB6803F1E1
:102340000473DA00BB6813449B007B617B697A6885
:102350001A601C37BD465DF8047B704780B485B0B9
:1023600000AFF860B9607A60FB681A68BB68DB434D
:102370001A407B681A43FB681A601437BD465DF843
:10238000047B704780B582B000AF03463960FB71B3
:10239000FB79002B1FD0FB79012B19D0FB79022B85
:1023A00013D0FB79032B0DD0FB79042B07D0FB79DD
:1023B000052B02D141F6FF730FE000230DE04FF62D
:1023C000FF730AE04FF6FF7307E04FF6FF7304E078
:1023D0004FF6FF7301E04FF6FF733A68134103F0C5
:1023E0000103002B04D10B4840F2C621FEF74CFD3F
:1023F0000949FA793B68012000FA03F318461346AD
:10240000DB0013449B000B44103358600837BD4673
:1024100080BD00BF543C00000060004080B582B029
:1024200000AF03463960FB71FB79002B1FD0FB79AD
:10243000012B19D0FB79022B13D0FB79032B0DD084
:10244000FB79042B07D0FB79052B02D141F6FF73F2
:102450000FE000230DE04FF6FF730AE04FF6FF7325
:1024600007E04FF6FF7304E04FF6FF7301E04FF60D
:10247000FF733A68134103F00103002B04D10B48AA
:1024800040F2F321FEF700FD0949FA793B6801208B
:1024900000FA03F318461346DB0013449B000B4479
:1024A000103318600837BD4680BD00BF543C0000A3
:1024B0000060004080B586B000AFB9607A601A460F
:1024C0000346FB731346BB73FB7B002B1FD0FB7BC8
:1024D000012B19D0FB7B022B13D0FB7B032B0DD0E0
:1024E000FB7B042B07D0FB7B052B02D141F6FF734E
:1024F0000FE000230DE04FF6FF730AE04FF6FF7385
:1025000007E04FF6FF7304E04FF6FF7301E04FF66C
:10251000FF73BA68134103F00103002B03D1224873
:10252000BC21FEF7B1FCBB68072B0ED8BB689B0033
:102530001A46072303FA02F1FB7BBA689200934024
:102540001A481A46FFF70AFF10E0BB68083B7B6198
:102550007B699B001A46072303FA02F1FB7B7A6929
:102560009200934012481A46FFF7F8FEBB7B1148D1
:10257000B9681A46FFF7DCFE97F820300E48B968B4
:102580001A46FFF7D5FE0D4ABB68012101FA03F395
:10259000C2F81C3197F824300948B9681A46FFF789
:1025A000C7FE1837BD4680BDB03C0000006100404A
:1025B00004610040086100400C6100400060004080
:1025C0001061004090B585B000AFB9607B600346F4
:1025D000FB731346BB73FB7B002B1FD0FB7B012BD4
:1025E00019D0FB7B022B13D0FB7B032B0DD0FB7B85
:1025F000042B07D0FB7B052B02D141F6FF730FE0C4
:1026000000230DE04FF6FF730AE04FF6FF7307E07B
:102610004FF6FF7304E04FF6FF7301E04FF6FF73D0
:10262000BA68134103F00103002B04D137484FF47B
:102630008771FEF729FCBB7B002B0DD07B68002B3C
:1026400005D0FB7B1846B968FFF7E8FE04E0FB7B8A
:102650001846B968FFF796FEBB68072B1CD82C4CB0
:10266000FA7B2B48F97B0B46DB000B449B000344B1
:102670005B68B968890008460F218140C9430B4057
:10268000B97BB8688000814019431346DB001344CE
:102690009B002344596024E01D4CFA7B1C48F97BC5
:1026A0000B46DB000B449B00034408331968BB68EE
:1026B00003F18043083B9B0018460F238340DB4314
:1026C0001940B87BBB6803F18043083B9B0000FACC
:1026D00003F319431346DB0013449B0023440833E0
:1026E0001960BB7B002B0DD17B68002B05D0FB7BD9
:1026F0001846B968FFF792FE04E0FB7B1846B968FC
:10270000FFF740FE1437BD4690BD00BFB03C00004F
:102710000060004080B483B000AF0346FB71FB79DA
:10272000002B06D0084A084B1B6843F001031360D6
:1027300005E0054A044B1B6823F0010313600C37C6
:10274000BD465DF8047B704700A0084080B487B0A8
:1027500000AFF860B9607A60FB6803F10473DA00D7
:10276000BB6813449B007B617B697A681A601C37E5
:10277000BD465DF8047B704780B584B000AF7860DB
:102780001D4B5B68FB607B68002B03D11B48472116
:10279000FEF77AFB0020FFF7BDFFFB6823F48303FD
:1027A00023F01F03FB607B685B68FA681343FB60E0
:1027B0007B681B7A1A46FB681343FB607B685B7A75
:1027C0001A46FB681343FB607B68DB68FA681343B7
:1027D000FB607B681B8A1A46FB681343FB60064A52
:1027E000FB6853607B681B78002B02D00120FFF749
:1027F00091FF1037BD4680BD00A008400C3D000091
:1028000080B485B000AF78600D4B5B68FB60FB68FF
:1028100023F48033FB607B68002B08D0B3F5803F46
:1028200000D005E0FB6843F48033FB6000E000BFAC
:10283000034AFB6853601437BD465DF8047B70475C
:1028400000A0084080B483B000AF03460A46FB8076
:1028500013467B717B79002B06D00949084B9A6897
:10286000FB8813438B6006E00549054B9A68FB889B
:10287000DB4313408B600C37BD465DF8047B70472B
:1028800000A0084080B584B000AFF860B96013467E
:10289000FB71FB68072B04DD6E4840F20D11FEF75B
:1028A000F3FABB68272B04DD6A484FF48A71FEF700
:1028B000EBFAFB68072B00F2C38001A252F823F069
:1028C000E12800000D2900003929000065290000D9
:1028D00091290000BD290000E9290000152A000007
:1028E000BB681F2B07DCBA68FB795B4811461A46A8
:1028F000FFF72CFFAAE0BB68203BBB60BA68FB79FE
:10290000564811461A46FFF721FF9FE0BB681F2B70
:1029100007DCBA68FB79524811461A46FFF716FFE2
:1029200094E0BB68203BBB60BA68FB794D48114618
:102930001A46FFF70BFF89E0BB681F2B07DCBA685C
:10294000FB79494811461A46FFF700FF7EE0BB6855
:10295000203BBB60BA68FB79444811461A46FFF732
:10296000F5FE73E0BB681F2B07DCBA68FB794048B3
:1029700011461A46FFF7EAFE68E0BB68203BBB60E1
:10298000BA68FB793B4811461A46FFF7DFFE5DE067
:10299000BB681F2B07DCBA68FB79374811461A461B
:1029A000FFF7D4FE52E0BB68203BBB60BA68FB79FE
:1029B000324811461A46FFF7C9FE47E0BB681F2B95
:1029C00007DCBA68FB792E4811461A46FFF7BEFEAF
:1029D0003CE0BB68203BBB60BA68FB7929481146E4
:1029E0001A46FFF7B3FE31E0BB681F2B07DCBA685D
:1029F000FB79254811461A46FFF7A8FE26E0BB687A
:102A0000203BBB60BA68FB79204811461A46FFF7A5
:102A10009DFE1BE0BB681F2B07DCBA68FB791C48D6
:102A200011461A46FFF792FE10E0BB68203BBB60E0
:102A3000BA68FB79174811461A46FFF787FE05E08A
:102A4000044840F28F11FEF71FFA00BF1037BD4651
:102A500080BD00BF0C3D000040A0084050A00840D1
:102A600044A0084054A0084048A0084058A008408E
:102A70004CA008405CA00840CCA00840B4A008408E
:102A8000D0A00840B8A00840D4A00840BCA008408E
:102A9000D8A00840C0A0084080B586B000AFF8605C
:102AA000B9607A60FB68072B04DD5F4840F2A9112A
:102AB000FEF7EAF9FB68072B00F2AC8001A252F89E
:102AC00023F000BFE52A0000092B00002D2B000099
:102AD000512B0000752B00009D2B0000C52B000022
:102AE000ED2B0000514B1B6C7B61BB68DB437A69AB
:102AF00013407B61BA687B6813407A6913437B613A
:102B00004A4A7B6913648BE0484B5B6C7B61BB6812
:102B1000DB437A6913407B61BA687B6813407A694A
:102B200013437B61414A7B69536479E03F4B9B6C63
:102B30007B61BB68DB437A6913407B61BA687B6861
:102B400013407A6913437B61384A7B69936467E079
:102B5000364BDB6C7B61BB68DB437A6913407B617E
:102B6000BA687B6813407A6913437B612F4A7B699B
:102B7000D36455E02D4BD3F8CC307B61BB68DB438D
:102B80007A6913407B61BA687B6813407A691343A2
:102B90007B61264A7B69C2F8CC3041E0234BD3F8F5
:102BA000D0307B61BB68DB437A6913407B61BA68D4
:102BB0007B6813407A6913437B611C4A7B69C2F8C6
:102BC000D0302DE0194BD3F8D4307B61BB68DB43A8
:102BD0007A6913407B61BA687B6813407A69134352
:102BE0007B61124A7B69C2F8D43019E00F4BD3F8ED
:102BF000D8307B61BB68DB437A6913407B61BA687C
:102C00007B6813407A6913437B61084A7B69C2F889
:102C1000D83005E004484FF4F571FEF735F900BFF0
:102C20001837BD4680BD00BF0C3D000000A0084025
:102C300080B586B000AFF860B9607A60FB68072B9A
:102C400004DD5C4840F20321FEF71EF9FB68072B08
:102C500000F2AC8001A252F823F000BF7D2C0000EE
:102C6000A12C0000C52C0000E92C00000D2D000057
:102C7000352D00005D2D0000852D00004E4B1B6D95
:102C80007B61BB68DB437A6913407B61BA687B6810
:102C900013407A6913437B61474A7B69136586E079
:102CA000454B5B6D7B61BB68DB437A6913407B619D
:102CB000BA687B6813407A6913437B613E4A7B693B
:102CC000536574E03C4B9B6D7B61BB68DB437A6969
:102CD00013407B61BA687B6813407A6913437B6158
:102CE000354A7B69936562E0334BDB6D7B61BB6882
:102CF000DB437A6913407B61BA687B6813407A6969
:102D000013437B612C4A7B69D36550E02A4BD3F88F
:102D1000B4307B61BB68DB437A6913407B61BA687E
:102D20007B6813407A6913437B61234A7B69C2F84D
:102D3000B4303CE0204BD3F8B8307B61BB68DB4358
:102D40007A6913407B61BA687B6813407A691343E0
:102D50007B61194A7B69C2F8B83028E0164BD3F87A
:102D6000BC307B61BB68DB437A6913407B61BA6826
:102D70007B6813407A6913437B610F4A7B69C2F811
:102D8000BC3014E00C4BD3F8C0307B61BB68DB4334
:102D90007A6913407B61BA687B6813407A69134390
:102DA0007B61054A7B69C2F8C03000E000BF18377C
:102DB000BD4680BD0C3D000000A0084080B483B03B
:102DC00000AF78600649064B5B6823F4E0127B682D
:102DD00013434B600C37BD465DF8047B704700BF62
:102DE00000A0084080B584B000AF78607B68012BFC
:102DF00003D90D487921FEF747F87B68002B02D0F4
:102E0000012B04D007E0094B9B68FB6006E0074BF1
:102E1000DB68FB6002E00023FB6000BFFB68184634
:102E20001037BD4680BD00BF683D0000000008406F
:102E300080B584B000AF786039607B68012B04D81E
:102E40003B6803F07F43002B03D00B48AA21FEF719
:102E50001BF87B68002B02D0012B03D008E0074B46
:102E6000FB6002E0064BFB6000BFFB683A681A603B
:102E70001037BD4680BD00BF683D00000800084017
:102E80000C00084080B485B000AF78607B681B7888
:102E9000002B02D00123FB6001E00023FB607B6874
:102EA0005B78002B03D0FB6843F00203FB607B6878
:102EB0009B78002B03D0FB6843F00403FB60044ABB
:102EC000FB6813601437BD465DF8047B704700BF94
:102ED0000000084080B584B000AF78607B68002BAC
:102EE00003D11A484121FDF7CFFF194B5B69DBB2D3
:102EF00003F00F03DBB29B00FB73154B1B6903F060
:102F0000C0039B09DAB2FB7B1343FB737B68FA7B3C
:102F10009A700F4B1B69DBB203F03F03DAB27B6898
:102F20005A700B4B9B69DBB223F00F03FB73084B0A
:102F3000DB6903F0F0031B09DAB2FB7B1343FB737D
:102F40007B68FA7B1A701037BD4680BDC43D000017
:102F5000D0FF0FE080B400AF054A054B1B6923F09A
:102F60000403136130BFBD465DF8047B704700BFAA
:102F700000ED00E080B500AF144B00225A64134B03
:102F800000221A64114B00229A65104B00221A6627
:102F90000E4B00229A6211200421FEF791FD0320BE
:102FA00000210122FEF7A6FF002000210122FEF7EA
:102FB000A1FF012000210122FEF79CFF0420002137
:102FC0000122FEF797FF00F0F5F880BD00800C406D
:102FD00080B582B000AF0346FB71184B00225A64E3
:102FE000164B00221A64154B00229A65134B0022DF
:102FF0001A66124B00229A6211200521FEF760FD2D
:10300000FB791846FEF7D8FE022000210122FEF7C8
:1030100071FF002000210122FEF76CFF012000213A
:103020000122FEF767FF042000210122FEF762FF64
:1030300000F0C0F80837BD4680BD00BF00800C40DE
:1030400080B500AF144B00225A64134B00221A645F
:10305000114B00229A65104B00221A660E4B00227B
:103060009A6211200421FEF72BFD0320002101228A
:10307000FEF740FF002000210122FEF73BFF012068
:1030800000210122FEF736FF042000210122FEF775
:1030900031FFFFF75FFF80BD00800C4080B582B03C
:1030A00000AF0346FB71184B00225A64164B0022F6
:1030B0001A64154B00229A65134B00221A66124BB4
:1030C00000229A6211200521FEF7FAFCFB791846CE
:1030D000FEF772FE022000210122FEF70BFF002006
:1030E00000210122FEF706FF012000210122FEF748
:1030F00001FF042000210122FEF7FCFEFFF72AFF5A
:103100000837BD4680BD00BF00800C4080B582B04E
:1031100000AF1D4B00225A641B4B00221A641A4B4D
:1031200000229A65184B00221A66174B00229A62F9
:1031300016480321FEF7C4FC15480121FEF7A8FA42
:1031400013484FF40041FEF73FF912480121FEF702
:103150009FFA114A3B1D1188927819809A700123B9
:103160003B7100237B710023BB713B1D1846FFF7A9
:1031700089FE002000210122FEF7BCFE0020FEF7A0
:10318000F5FF0837BD4680BD00800C4002001800E6
:103190006016100000430200243E000080B500AF1E
:1031A0000020FFF731F880BD80B500AFFFF78AF847
:1031B00080BD00BF80B4C5B000AF3B1D01221A60C6
:1031C0000123C7F80C313EE0D7F80C315A1E3B1DE5
:1031D00053F822300133C7F804310223C7F808310D
:1031E00020E0D7F80421D7F808319A4207D13B1DD7
:1031F000D7F80C21D7F8041143F822101EE0D7F8B5
:103200000431D7F80821B3FBF2F2D7F8081101FB1B
:1032100002F29B1A002B00D10AE0D7F808310133E3
:10322000C7F80831D7F80821D7F804319A42D8D91D
:10323000D7F804310133C7F80431CEE7D7F80C31A1
:103240000133C7F80C31D7F80C313F2BBCD9B4E7A8
:1032500080B483B000AF0346FB71084997F907308B
:103260005B09FA7902F01F02012000FA02F241F82C
:1032700023200C37BD465DF8047B704700E100E079
:1032800080B483B000AF0346FB71094997F907305A
:103290005B09FA7902F01F02012000FA02F22033E2
:1032A00041F823200C37BD465DF8047B704700BF12
:1032B00000E100E080B483B000AF0346FB71094930
:1032C00097F907305B09FA7902F01F02012000FA32
:1032D00002F2603341F823200C37BD465DF8047BD1
:1032E000704700BF00E100E080B483B000AF034648
:1032F0003960FB7197F90730002B0BDA0D49FB7928
:1033000003F00F03043B3A68D2B25201D2B20B442D
:103310001A7609E0084997F907303A68D2B25201A3
:10332000D2B20B4483F800230C37BD465DF8047B12
:10333000704700BF00ED00E000E100E080B582B022
:1033400000AF78607B68013BB3F1807F01D301233C
:103350000FE00A4A7B68013B53604FF0FF300721C2
:10336000FFF7C2FF054B00229A60044B07221A6048
:10337000002318460837BD4680BD00BF10E000E0BE
:1033800080B483B000AF7860044A7B68C2F81C3117
:103390000C37BD465DF8047B704700BF00600040FD
:1033A00090B585B002AF396011461A460346FB71ED
:1033B0000B46BB7113467B71FA79BC797B7900931C
:1033C0003B7E0193104639683A682346FFF772F84E
:1033D0000C37BD4690BD00BF80B500AF00F03CF992
:1033E000FCF70AFF0246544BA3FB02239B09184635
:1033F000FFF7A4FF0346002B03D050483721FDF709
:1034000043FD0020FDF7BEFB4D4B4FF47A621A607E
:1034100079E04C4B1B68102B68D801A252F823F0BE
:10342000653400006D340000753400007D34000008
:10343000853400008D340000953400009D34000078
:10344000A5340000AD340000B5340000BD340000E8
:10345000C5340000CD340000D5340000DD34000058
:10346000E53400003848FDF7A3FC3FE03748FDF79E
:103470009FFC3BE03648FDF79BFC37E03548FDF705
:1034800097FC33E03448FDF793FC2FE03348FDF719
:103490008FFC2BE03248FDF78BFC27E03148FDF72D
:1034A00087FC23E03048FDF783FC1FE02F48FDF741
:1034B0007FFC1BE02E48FDF77BFC17E02D48FDF755
:1034C00077FC13E02C48FDF773FC0FE02B48FDF769
:1034D0006FFC0BE02A48FDF76BFC07E02948FDF77D
:1034E00067FC03E02848FDF763FC00BF144B1B6832
:1034F0001846FDF7A3FB642000F064F8104B1B682E
:10350000643B0F4A13600E4B1B68002B81DC1F4885
:10351000FDF74EFCFDF722FB0120FFF7B1FE012075
:103520000A2100220123FFF74DF8194B00221A60EF
:10353000044B1B68184680BDD34D6210283E000026
:10354000D8000020D00000203C3E0000443E000097
:103550004C3E0000543E00005C3E0000643E000013
:103560006C3E0000743E00007C3E0000843E000083
:103570008C3E0000943E00009C3E0000A43E0000F3
:10358000AC3E0000B43E0000BC3E0000C03E000067
:1035900010E000E080B500AF084B1B680133074A1C
:1035A0001360074B1B68002B02D1FDF7D7FA04E02C
:1035B000034B1B68013B024A136080BDE4000020FE
:1035C000DC00002080B485B000AF7860074B1B683A
:1035D000FB6000BF054B1A68FB68D21A7B689A42F1
:1035E000F8D31437BD465DF8047B7047E400002033
:1035F00080B500AF4FF40070FFF7C2FE084B1B68A8
:103600000133074A13600020FDF7BCFA044B1B6826
:103610001846FDF713FB034B4FF47A621A6080BD26
:10362000D4000020DC00002080B500AF4FF48060A3
:10363000FFF7A6FE064B1B680F2B08DC044B1B682C
:103640000133034A1360034B4FF47A621A6080BD62
:10365000D0000020D800002080B582B002AF17480B
:103660000121FEF715F80120092102220123FEF7AE
:10367000A9FF012300930120092100220123FFF764
:103680008FFE0B20FFF716FE0B20FFF7E1FD012058
:103690000A2102220123FEF795FF01230093012056
:1036A0000A2100220123FFF77BFE0120FFF702FE23
:1036B0000120FFF7CDFDBD4680BD00BF00D2040054
:1036C00080B582B000AF0C4B1B687B603B46184650
:1036D000FFF700FC7B681B0E0F2B0AD93B78032BEE
:1036E00007D1064A054B1B6823F0500343F0100333
:1036F00013600837BD4680BDFC81E00FC0800C40E0
:1037000080B582B000AFFFF7DBFFFFF765FE7860A2
:103710007B68102B63D801A252F823F061370000B8
:10372000673700006F370000773700007F370000F1
:10373000873700008F370000973700009D37000063
:10374000A5370000AD370000B5370000BD370000D9
:10375000C5370000CD370000D3370000D93700004F
:10376000FFF708FC3BE00520FFF732FC37E00420C0
:10377000FFF72EFC33E00320FFF72AFC2FE00220A6
:10378000FFF726FC2BE00120FFF722FC27E00020BA
:10379000FFF71EFC23E0FFF753FC20E00520FFF7B6
:1037A0007DFC1CE00420FFF779FC18E00320FFF704
:1037B00075FC14E00220FFF771FC10E00120FFF718
:1037C0006DFC0CE00020FFF769FC08E0FFF79EFCB1
:1037D00005E0FFF7E3FC02E0FFF7E6FC00BF04486A
:1037E0005F21FDF751FB002318460837BD4680BD19
:1037F000C43E00000028B8BF4042704708B5074BE0
:10380000044613B10021AFF30080054B1868836AAA
:1038100003B19847204600F03BF800BF00000000CD
:10382000D43E00000E4B70B51E460E4C0025E41A27
:10383000A410A54204D056F8253098470135F8E782
:1038400000F028F8084B094C1E46E41AA410002585
:10385000A54204D056F8253098470135F8E770BDE9
:103860006800002068000020680000206C00002034
:1038700003460244934202D003F8011BFAE7704763
:10388000034613F8012B002AFBD1181A01387047A0
:10389000FEE700BFF8B500BFF8BC08BC9E46704705
:1038A000F8B500BFF8BC08BC9E467047010105078B
:1038B000070304020302040605060D0E0E0E0D0D8D
:1038C0000D0D0E0E0E0E0D0D01010507070304026E
:1038D0000302040605060F1010100F0F0F0F101033
:1038E00010100F0F0101050707030402030204066D
:1038F00005061112121211111111121212121111C8
:103900000101050707030402030204060506131C50
:103910001C1C131313131C1C1C1C13130001050780
:10392000060203010302040604051D1E1E1E1D1DC2
:103930001D1D1E1E1E1E1D1D000105070602030182
:103940000302040604051F2020201F1F1F1F202024
:1039500020201F1F010105070703040203020406BC
:103960000506212222222121212122222222212177
:10397000070502010306042323232323232307052A
:10398000020103060424242424242424070502011C
:1039900003060425252525252525070502010306FF
:1039A0000426262626262626000107020627272784
:1039B00027270000000000000000131211100F0E56
:1039C0000D0C00000000212524260101030404023F
:1039D00003020D0E0D0D0E0D0E0E01010304040267
:1039E00003020F100F0F100F101001010304040247
:1039F0000302111211111211121201010304040227
:103A00000302131C13131C131C1C000102030401EA
:103A100003021D1E1D1D1E1D1E1E000102030401AA
:103A200003021F201F1F201F202001010304040286
:103A30000302212221212221222205070704040654
:103A400005060E0E0D0D0E0E0D0D050707040406DE
:103A5000050610100F0F10100F0F050707040406BE
:103A6000050612121111121211110507070404069E
:103A700005061C1C13131C1C131305070603040660
:103A800004051E1E1D1D1E1E1D1D05070603040622
:103A9000040520201F1F20201F1F05070704040600
:103AA00005062222212122222121000000000011EE
:103AB00080020000000002060000200039000F0014
:103AC0000000401500204004001000223F000600C6
:103AD0005B044F0466046D047D0407007F046F04DB
:103AE00000000000000A000080200000FFFF7704B3
:103AF000790A3900B020790071007D04760406004F
:103B00000E00700A3800B602B6083F0073043F0882
:103B1000730C6D0401113E0030223628802A6E0499
:103B20000922390080080F00010008000001581028
:103B30007C0458005E04582071040C0C74040400CA
:103B40000E00700C3800541454045C0473046704B1
:103B50005004080C78001C0010201428802A0C083F
:103B6000482000003F0006005B004F0066006D002B
:103B70007D0007007F006F0077007C0039005E0049
:103B800079007100400000000100000003004000C7
:103B90000C0000000000000000000000653A5C70AE
:103BA000726F6772616D735C73696C69636F6E6C61
:103BB0006162735C73696D706C6963697479737445
:103BC0007564696F5C76345C646576656C6F70658E
:103BD000725C73646B735C65787833325C76342E18
:103BE000342E315C656D6C69625C696E635C656D19
:103BF0005F636D752E680000453A2F50726F6772D3
:103C0000616D732F53696C69636F6E4C6162732FC2
:103C100053696D706C696369747953747564696F05
:103C20002F76342F646576656C6F7065722F7364C0
:103C30006B732F65787833322F76342E342E312FF4
:103C4000656D6C69622F7372632F656D5F636D754F
:103C50002E630000653A5C70726F6772616D735C11
:103C600073696C69636F6E6C6162735C73696D70AC
:103C70006C696369747973747564696F5C76345CBC
:103C8000646576656C6F7065725C73646B735C659C
:103C9000787833325C76342E342E315C656D6C6905
:103CA000625C696E635C656D5F6770696F2E68004A
:103CB000453A2F50726F6772616D732F53696C694B
:103CC000636F6E4C6162732F53696D706C696369C9
:103CD000747953747564696F2F76342F64657665D3
:103CE0006C6F7065722F73646B732F6578783332E5
:103CF0002F76342E342E312F656D6C69622F7372DE
:103D0000632F656D5F6770696F2E6300453A2F50B2
:103D1000726F6772616D732F53696C69636F6E4C5C
:103D20006162732F53696D706C6963697479537440
:103D30007564696F2F76342F646576656C6F706576
:103D4000722F73646B732F65787833322F76342E2D
:103D5000342E312F656D6C69622F7372632F656D20
:103D60005F6C63642E630000453A2F50726F677278
:103D7000616D732F53696C69636F6E4C6162732F51
:103D800053696D706C696369747953747564696F94
:103D90002F76342F646576656C6F7065722F73644F
:103DA0006B732F65787833322F76342E342E312F83
:103DB000656D6C69622F7372632F656D5F727463DA
:103DC0002E630000453A2F50726F6772616D732F3A
:103DD00053696C69636F6E4C6162732F53696D70C8
:103DE0006C696369747953747564696F2F76342FC5
:103DF000646576656C6F7065722F73646B732F6585
:103E0000787833322F76342E342E312F656D6C69ED
:103E1000622F7372632F656D5F73797374656D2E96
:103E200063000000010001002E2E2F7372632F6CBF
:103E300063645F73657475702E630000454D3020B8
:103E400034384D00454D302032384D00454D30203E
:103E500032314D00454D302031344D00454D30203C
:103E600031314D00454D302030374D00454D30202B
:103E700030314D00454D312034384D00454D312015
:103E800032384D00454D312032314D00454D312005
:103E900031344D00454D312031314D00454D3120FB
:103EA00030374D00454D312030314D00454D3220E9
:103EB00052544300454D3320554C4600454D340087
:103EC0000C0000002E2E2F7372632F6D61696E2E11
:0C3ED00063004300080000200000000018
:083EDC005CC2FF7F0100000041
:103EE400006CDC0200800000000000000000000004
:103EF40000000000000000000000000000000000BE
:103F04000000000000000000D23E0000000000009D
:103F1400000000000000000000000000000000009D
:103F2400000000000000000000000000000000008D
:103F3400000000000000000000000000000000007D
:103F4400000000000000000001010000DD0000008E
:043F54000000000069
:04000003000001AD4B
:00000001FF
